{
	"contracts/simpleBanko.sol": {
		"SimpleBank": {
			"abi": [
				{
					"inputs": [
						{
							"internalType": "uint256",
							"name": "initialBalance",
							"type": "uint256"
						}
					],
					"stateMutability": "payable",
					"type": "constructor"
				},
				{
					"inputs": [],
					"name": "deposit",
					"outputs": [],
					"stateMutability": "payable",
					"type": "function"
				},
				{
					"inputs": [],
					"name": "getBalance",
					"outputs": [
						{
							"internalType": "uint256",
							"name": "",
							"type": "uint256"
						}
					],
					"stateMutability": "view",
					"type": "function"
				},
				{
					"inputs": [],
					"name": "owner",
					"outputs": [
						{
							"internalType": "address",
							"name": "",
							"type": "address"
						}
					],
					"stateMutability": "view",
					"type": "function"
				},
				{
					"inputs": [
						{
							"internalType": "uint256",
							"name": "amount",
							"type": "uint256"
						}
					],
					"name": "withdraw",
					"outputs": [],
					"stateMutability": "nonpayable",
					"type": "function"
				}
			],
			"devdoc": {
				"kind": "dev",
				"methods": {},
				"version": 1
			},
			"evm": {
				"assembly": "    /* \"contracts/simpleBanko.sol\":60:1291  contract SimpleBank {... */\n  mstore(0x40, 0x80)\n    /* \"contracts/simpleBanko.sol\":321:642  constructor(uint256 initialBalance) payable {... */\n  mload(0x40)\n  sub(codesize, bytecodeSize)\n  dup1\n  bytecodeSize\n  dup4\n  codecopy\n  dup2\n  add\n  0x40\n  dup2\n  swap1\n  mstore\n  tag_1\n  swap2\n  tag_2\n  jump\t// in\ntag_1:\n    /* \"contracts/simpleBanko.sol\":397:411  initialBalance */\n  dup1\n    /* \"contracts/simpleBanko.sol\":384:393  msg.value */\n  callvalue\n    /* \"contracts/simpleBanko.sol\":384:411  msg.value >= initialBalance */\n  lt\n  iszero\n    /* \"contracts/simpleBanko.sol\":376:465  require(msg.value >= initialBalance, \"Insufficient Ether sent to match initial balance.\") */\n  tag_5\n  jumpi\n  mload(0x40)\n  shl(0xe5, 0x461bcd)\n  dup2\n  mstore\n    /* \"#utility.yul\":405:407   */\n  0x20\n    /* \"contracts/simpleBanko.sol\":376:465  require(msg.value >= initialBalance, \"Insufficient Ether sent to match initial balance.\") */\n  0x04\n  dup3\n  add\n    /* \"#utility.yul\":387:408   */\n  mstore\n    /* \"#utility.yul\":444:446   */\n  0x31\n    /* \"#utility.yul\":424:442   */\n  0x24\n  dup3\n  add\n    /* \"#utility.yul\":417:447   */\n  mstore\n    /* \"#utility.yul\":483:517   */\n  0x496e73756666696369656e742045746865722073656e7420746f206d61746368\n    /* \"#utility.yul\":463:481   */\n  0x44\n  dup3\n  add\n    /* \"#utility.yul\":456:518   */\n  mstore\n  shl(0x79, 0x1034b734ba34b0b6103130b630b731b297)\n    /* \"#utility.yul\":534:552   */\n  0x64\n  dup3\n  add\n    /* \"#utility.yul\":527:574   */\n  mstore\n    /* \"#utility.yul\":591:610   */\n  0x84\n  add\n    /* \"contracts/simpleBanko.sol\":376:465  require(msg.value >= initialBalance, \"Insufficient Ether sent to match initial balance.\") */\n  mload(0x40)\n  dup1\n  swap2\n  sub\n  swap1\n  revert\ntag_5:\n    /* \"contracts/simpleBanko.sol\":476:481  owner */\n  0x01\n    /* \"contracts/simpleBanko.sol\":476:494  owner = msg.sender */\n  dup1\n  sload\n  not(sub(shl(0xa0, 0x01), 0x01))\n  and\n    /* \"contracts/simpleBanko.sol\":484:494  msg.sender */\n  caller\n    /* \"contracts/simpleBanko.sol\":476:494  owner = msg.sender */\n  swap1\n  dup2\n  or\n  swap1\n  swap2\n  sstore\n    /* \"contracts/simpleBanko.sol\":476:481  owner */\n  0x00\n    /* \"contracts/simpleBanko.sol\":561:576  balances[owner] */\n  swap1\n  dup2\n  mstore\n  0x20\n  dup2\n  swap1\n  mstore\n  0x40\n  swap1\n  keccak256\n    /* \"contracts/simpleBanko.sol\":561:593  balances[owner] = initialBalance */\n  sstore\n    /* \"contracts/simpleBanko.sol\":60:1291  contract SimpleBank {... */\n  jump(tag_9)\n    /* \"#utility.yul\":14:198   */\ntag_2:\n    /* \"#utility.yul\":84:90   */\n  0x00\n    /* \"#utility.yul\":137:139   */\n  0x20\n    /* \"#utility.yul\":125:134   */\n  dup3\n    /* \"#utility.yul\":116:123   */\n  dup5\n    /* \"#utility.yul\":112:135   */\n  sub\n    /* \"#utility.yul\":108:140   */\n  slt\n    /* \"#utility.yul\":105:157   */\n  iszero\n  tag_11\n  jumpi\n    /* \"#utility.yul\":153:154   */\n  0x00\n    /* \"#utility.yul\":150:151   */\n  0x00\n    /* \"#utility.yul\":143:155   */\n  revert\n    /* \"#utility.yul\":105:157   */\ntag_11:\n  pop\n    /* \"#utility.yul\":176:192   */\n  mload\n  swap2\n    /* \"#utility.yul\":14:198   */\n  swap1\n  pop\n  jump\t// out\n    /* \"#utility.yul\":203:616   */\ntag_9:\n    /* \"contracts/simpleBanko.sol\":60:1291  contract SimpleBank {... */\n  dataSize(sub_0)\n  dup1\n  dataOffset(sub_0)\n  0x00\n  codecopy\n  0x00\n  return\nstop\n\nsub_0: assembly {\n        /* \"contracts/simpleBanko.sol\":60:1291  contract SimpleBank {... */\n      mstore(0x40, 0x80)\n      jumpi(tag_1, lt(calldatasize, 0x04))\n      shr(0xe0, calldataload(0x00))\n      dup1\n      0x12065fe0\n      eq\n      tag_2\n      jumpi\n      dup1\n      0x2e1a7d4d\n      eq\n      tag_3\n      jumpi\n      dup1\n      0x8da5cb5b\n      eq\n      tag_4\n      jumpi\n      dup1\n      0xd0e30db0\n      eq\n      tag_5\n      jumpi\n    tag_1:\n      revert(0x00, 0x00)\n        /* \"contracts/simpleBanko.sol\":700:798  function getBalance() public view returns (uint256) {... */\n    tag_2:\n      callvalue\n      dup1\n      iszero\n      tag_6\n      jumpi\n      revert(0x00, 0x00)\n    tag_6:\n      pop\n        /* \"contracts/simpleBanko.sol\":779:789  msg.sender */\n      caller\n        /* \"contracts/simpleBanko.sol\":743:750  uint256 */\n      0x00\n        /* \"contracts/simpleBanko.sol\":770:790  balances[msg.sender] */\n      swap1\n      dup2\n      mstore\n      0x20\n      dup2\n      swap1\n      mstore\n      0x40\n      swap1\n      keccak256\n      sload\n        /* \"contracts/simpleBanko.sol\":700:798  function getBalance() public view returns (uint256) {... */\n      mload(0x40)\n        /* \"#utility.yul\":160:185   */\n      swap1\n      dup2\n      mstore\n        /* \"#utility.yul\":148:150   */\n      0x20\n        /* \"#utility.yul\":133:151   */\n      add\n        /* \"contracts/simpleBanko.sol\":700:798  function getBalance() public view returns (uint256) {... */\n    tag_9:\n      mload(0x40)\n      dup1\n      swap2\n      sub\n      swap1\n      return\n        /* \"contracts/simpleBanko.sol\":1076:1288  function withdraw(uint256 amount) public {... */\n    tag_3:\n      callvalue\n      dup1\n      iszero\n      tag_11\n      jumpi\n      revert(0x00, 0x00)\n    tag_11:\n      pop\n      tag_12\n      tag_13\n      calldatasize\n      0x04\n      tag_14\n      jump\t// in\n    tag_13:\n      tag_15\n      jump\t// in\n    tag_12:\n      stop\n        /* \"contracts/simpleBanko.sol\":216:236  address public owner */\n    tag_4:\n      callvalue\n      dup1\n      iszero\n      tag_16\n      jumpi\n      revert(0x00, 0x00)\n    tag_16:\n      pop\n      sload(0x01)\n      tag_17\n      swap1\n      sub(shl(0xa0, 0x01), 0x01)\n      and\n      dup2\n      jump\n    tag_17:\n      mload(0x40)\n      sub(shl(0xa0, 0x01), 0x01)\n        /* \"#utility.yul\":545:577   */\n      swap1\n      swap2\n      and\n        /* \"#utility.yul\":527:578   */\n      dup2\n      mstore\n        /* \"#utility.yul\":515:517   */\n      0x20\n        /* \"#utility.yul\":500:518   */\n      add\n        /* \"contracts/simpleBanko.sol\":216:236  address public owner */\n      tag_9\n        /* \"#utility.yul\":381:584   */\n      jump\n        /* \"contracts/simpleBanko.sol\":858:1015  function deposit() public payable {... */\n    tag_5:\n      tag_12\n      tag_22\n      jump\t// in\n        /* \"contracts/simpleBanko.sol\":1076:1288  function withdraw(uint256 amount) public {... */\n    tag_15:\n        /* \"contracts/simpleBanko.sol\":1145:1155  msg.sender */\n      caller\n        /* \"contracts/simpleBanko.sol\":1136:1144  balances */\n      0x00\n        /* \"contracts/simpleBanko.sol\":1136:1156  balances[msg.sender] */\n      swap1\n      dup2\n      mstore\n      0x20\n      dup2\n      swap1\n      mstore\n      0x40\n      swap1\n      keccak256\n      sload\n        /* \"contracts/simpleBanko.sol\":1136:1166  balances[msg.sender] >= amount */\n      dup2\n      gt\n      iszero\n        /* \"contracts/simpleBanko.sol\":1128:1192  require(balances[msg.sender] >= amount, \"Insufficient balance.\") */\n      tag_25\n      jumpi\n      mload(0x40)\n      shl(0xe5, 0x461bcd)\n      dup2\n      mstore\n        /* \"#utility.yul\":791:793   */\n      0x20\n        /* \"contracts/simpleBanko.sol\":1128:1192  require(balances[msg.sender] >= amount, \"Insufficient balance.\") */\n      0x04\n      dup3\n      add\n        /* \"#utility.yul\":773:794   */\n      mstore\n        /* \"#utility.yul\":830:832   */\n      0x15\n        /* \"#utility.yul\":810:828   */\n      0x24\n      dup3\n      add\n        /* \"#utility.yul\":803:833   */\n      mstore\n      shl(0x59, 0x24b739bab33334b1b4b2b73a103130b630b731b297)\n        /* \"#utility.yul\":849:867   */\n      0x44\n      dup3\n      add\n        /* \"#utility.yul\":842:893   */\n      mstore\n        /* \"#utility.yul\":910:928   */\n      0x64\n      add\n        /* \"contracts/simpleBanko.sol\":1128:1192  require(balances[msg.sender] >= amount, \"Insufficient balance.\") */\n    tag_26:\n      mload(0x40)\n      dup1\n      swap2\n      sub\n      swap1\n      revert\n    tag_25:\n        /* \"contracts/simpleBanko.sol\":1212:1222  msg.sender */\n      caller\n        /* \"contracts/simpleBanko.sol\":1203:1211  balances */\n      0x00\n        /* \"contracts/simpleBanko.sol\":1203:1223  balances[msg.sender] */\n      swap1\n      dup2\n      mstore\n      0x20\n      dup2\n      swap1\n      mstore\n      0x40\n      dup2\n      keccak256\n        /* \"contracts/simpleBanko.sol\":1203:1233  balances[msg.sender] -= amount */\n      dup1\n      sload\n        /* \"contracts/simpleBanko.sol\":1227:1233  amount */\n      dup4\n      swap3\n        /* \"contracts/simpleBanko.sol\":1203:1211  balances */\n      swap1\n        /* \"contracts/simpleBanko.sol\":1203:1233  balances[msg.sender] -= amount */\n      tag_28\n      swap1\n        /* \"contracts/simpleBanko.sol\":1227:1233  amount */\n      dup5\n      swap1\n        /* \"contracts/simpleBanko.sol\":1203:1233  balances[msg.sender] -= amount */\n      tag_29\n      jump\t// in\n    tag_28:\n      swap1\n      swap2\n      sstore\n      pop\n      pop\n        /* \"contracts/simpleBanko.sol\":1244:1280  payable(msg.sender).transfer(amount) */\n      mload(0x40)\n        /* \"contracts/simpleBanko.sol\":1252:1262  msg.sender */\n      caller\n      swap1\n        /* \"contracts/simpleBanko.sol\":1244:1280  payable(msg.sender).transfer(amount) */\n      dup3\n      iszero\n      0x08fc\n      mul\n      swap1\n        /* \"contracts/simpleBanko.sol\":1273:1279  amount */\n      dup4\n      swap1\n        /* \"contracts/simpleBanko.sol\":1244:1280  payable(msg.sender).transfer(amount) */\n      0x00\n      dup2\n      dup2\n      dup2\n        /* \"contracts/simpleBanko.sol\":1273:1279  amount */\n      dup6\n        /* \"contracts/simpleBanko.sol\":1252:1262  msg.sender */\n      dup9\n        /* \"contracts/simpleBanko.sol\":1244:1280  payable(msg.sender).transfer(amount) */\n      dup9\n      call\n      swap4\n      pop\n      pop\n      pop\n      pop\n      iszero\n      dup1\n      iszero\n      tag_31\n      jumpi\n      returndatacopy(0x00, 0x00, returndatasize)\n      revert(0x00, returndatasize)\n    tag_31:\n      pop\n        /* \"contracts/simpleBanko.sol\":1076:1288  function withdraw(uint256 amount) public {... */\n      pop\n      jump\t// out\n        /* \"contracts/simpleBanko.sol\":858:1015  function deposit() public payable {... */\n    tag_22:\n        /* \"contracts/simpleBanko.sol\":923:924  0 */\n      0x00\n        /* \"contracts/simpleBanko.sol\":911:920  msg.value */\n      callvalue\n        /* \"contracts/simpleBanko.sol\":911:924  msg.value > 0 */\n      gt\n        /* \"contracts/simpleBanko.sol\":903:963  require(msg.value > 0, \"Deposit must be greater than zero.\") */\n      tag_33\n      jumpi\n      mload(0x40)\n      shl(0xe5, 0x461bcd)\n      dup2\n      mstore\n        /* \"#utility.yul\":1406:1408   */\n      0x20\n        /* \"contracts/simpleBanko.sol\":903:963  require(msg.value > 0, \"Deposit must be greater than zero.\") */\n      0x04\n      dup3\n      add\n        /* \"#utility.yul\":1388:1409   */\n      mstore\n        /* \"#utility.yul\":1445:1447   */\n      0x22\n        /* \"#utility.yul\":1425:1443   */\n      0x24\n      dup3\n      add\n        /* \"#utility.yul\":1418:1448   */\n      mstore\n        /* \"#utility.yul\":1484:1518   */\n      0x4465706f736974206d7573742062652067726561746572207468616e207a6572\n        /* \"#utility.yul\":1464:1482   */\n      0x44\n      dup3\n      add\n        /* \"#utility.yul\":1457:1519   */\n      mstore\n      shl(0xf1, 0x3797)\n        /* \"#utility.yul\":1535:1553   */\n      0x64\n      dup3\n      add\n        /* \"#utility.yul\":1528:1560   */\n      mstore\n        /* \"#utility.yul\":1577:1596   */\n      0x84\n      add\n        /* \"contracts/simpleBanko.sol\":903:963  require(msg.value > 0, \"Deposit must be greater than zero.\") */\n      tag_26\n        /* \"#utility.yul\":1204:1602   */\n      jump\n        /* \"contracts/simpleBanko.sol\":903:963  require(msg.value > 0, \"Deposit must be greater than zero.\") */\n    tag_33:\n        /* \"contracts/simpleBanko.sol\":983:993  msg.sender */\n      caller\n        /* \"contracts/simpleBanko.sol\":974:982  balances */\n      0x00\n        /* \"contracts/simpleBanko.sol\":974:994  balances[msg.sender] */\n      swap1\n      dup2\n      mstore\n      0x20\n      dup2\n      swap1\n      mstore\n      0x40\n      dup2\n      keccak256\n        /* \"contracts/simpleBanko.sol\":974:1007  balances[msg.sender] += msg.value */\n      dup1\n      sload\n        /* \"contracts/simpleBanko.sol\":998:1007  msg.value */\n      callvalue\n      swap3\n        /* \"contracts/simpleBanko.sol\":974:982  balances */\n      swap1\n        /* \"contracts/simpleBanko.sol\":974:1007  balances[msg.sender] += msg.value */\n      tag_36\n      swap1\n        /* \"contracts/simpleBanko.sol\":998:1007  msg.value */\n      dup5\n      swap1\n        /* \"contracts/simpleBanko.sol\":974:1007  balances[msg.sender] += msg.value */\n      tag_37\n      jump\t// in\n    tag_36:\n      swap1\n      swap2\n      sstore\n      pop\n      pop\n        /* \"contracts/simpleBanko.sol\":858:1015  function deposit() public payable {... */\n      jump\t// out\n        /* \"#utility.yul\":196:376   */\n    tag_14:\n        /* \"#utility.yul\":255:261   */\n      0x00\n        /* \"#utility.yul\":308:310   */\n      0x20\n        /* \"#utility.yul\":296:305   */\n      dup3\n        /* \"#utility.yul\":287:294   */\n      dup5\n        /* \"#utility.yul\":283:306   */\n      sub\n        /* \"#utility.yul\":279:311   */\n      slt\n        /* \"#utility.yul\":276:328   */\n      iszero\n      tag_42\n      jumpi\n        /* \"#utility.yul\":324:325   */\n      0x00\n        /* \"#utility.yul\":321:322   */\n      0x00\n        /* \"#utility.yul\":314:326   */\n      revert\n        /* \"#utility.yul\":276:328   */\n    tag_42:\n      pop\n        /* \"#utility.yul\":347:370   */\n      calldataload\n      swap2\n        /* \"#utility.yul\":196:376   */\n      swap1\n      pop\n      jump\t// out\n        /* \"#utility.yul\":939:1066   */\n    tag_38:\n        /* \"#utility.yul\":1000:1010   */\n      0x4e487b71\n        /* \"#utility.yul\":995:998   */\n      0xe0\n        /* \"#utility.yul\":991:1011   */\n      shl\n        /* \"#utility.yul\":988:989   */\n      0x00\n        /* \"#utility.yul\":981:1012   */\n      mstore\n        /* \"#utility.yul\":1031:1035   */\n      0x11\n        /* \"#utility.yul\":1028:1029   */\n      0x04\n        /* \"#utility.yul\":1021:1036   */\n      mstore\n        /* \"#utility.yul\":1055:1059   */\n      0x24\n        /* \"#utility.yul\":1052:1053   */\n      0x00\n        /* \"#utility.yul\":1045:1060   */\n      revert\n        /* \"#utility.yul\":1071:1199   */\n    tag_29:\n        /* \"#utility.yul\":1138:1147   */\n      dup2\n      dup2\n      sub\n        /* \"#utility.yul\":1159:1170   */\n      dup2\n      dup2\n      gt\n        /* \"#utility.yul\":1156:1193   */\n      iszero\n      tag_48\n      jumpi\n        /* \"#utility.yul\":1173:1191   */\n      tag_48\n      tag_38\n      jump\t// in\n    tag_48:\n        /* \"#utility.yul\":1071:1199   */\n      swap3\n      swap2\n      pop\n      pop\n      jump\t// out\n        /* \"#utility.yul\":1607:1732   */\n    tag_37:\n        /* \"#utility.yul\":1672:1681   */\n      dup1\n      dup3\n      add\n        /* \"#utility.yul\":1693:1703   */\n      dup1\n      dup3\n      gt\n        /* \"#utility.yul\":1690:1726   */\n      iszero\n      tag_48\n      jumpi\n        /* \"#utility.yul\":1706:1724   */\n      tag_48\n      tag_38\n      jump\t// in\n\n    auxdata: 0xa2646970667358221220dde51d2946013fa4af251253302f118274751b6be07a441ff03244da838e0e6064736f6c634300081b0033\n}\n",
				"bytecode": {
					"linkReferences": {},
					"object": "608060405260405161035f38038061035f83398101604081905260209160b4565b80341015608d5760405162461bcd60e51b815260206004820152603160248201527f496e73756666696369656e742045746865722073656e7420746f206d617463686044820152701034b734ba34b0b6103130b630b731b29760791b606482015260840160405180910390fd5b600180546001600160a01b031916339081179091555f9081526020819052604090205560ca565b5f6020828403121560c3575f5ffd5b5051919050565b610288806100d75f395ff3fe60806040526004361061003e575f3560e01c806312065fe0146100425780632e1a7d4d146100705780638da5cb5b14610091578063d0e30db0146100c8575b5f5ffd5b34801561004d575f5ffd5b50335f908152602081905260409020546040519081526020015b60405180910390f35b34801561007b575f5ffd5b5061008f61008a3660046101fb565b6100d0565b005b34801561009c575f5ffd5b506001546100b0906001600160a01b031681565b6040516001600160a01b039091168152602001610067565b61008f61017c565b335f9081526020819052604090205481111561012b5760405162461bcd60e51b815260206004820152601560248201527424b739bab33334b1b4b2b73a103130b630b731b29760591b60448201526064015b60405180910390fd5b335f9081526020819052604081208054839290610149908490610226565b9091555050604051339082156108fc029083905f818181858888f19350505050158015610178573d5f5f3e3d5ffd5b5050565b5f34116101d65760405162461bcd60e51b815260206004820152602260248201527f4465706f736974206d7573742062652067726561746572207468616e207a6572604482015261379760f11b6064820152608401610122565b335f90815260208190526040812080543492906101f490849061023f565b9091555050565b5f6020828403121561020b575f5ffd5b5035919050565b634e487b7160e01b5f52601160045260245ffd5b8181038181111561023957610239610212565b92915050565b808201808211156102395761023961021256fea2646970667358221220dde51d2946013fa4af251253302f118274751b6be07a441ff03244da838e0e6064736f6c634300081b0033",
					"opcodes": "PUSH1 0x80 PUSH1 0x40 MSTORE PUSH1 0x40 MLOAD PUSH2 0x35F CODESIZE SUB DUP1 PUSH2 0x35F DUP4 CODECOPY DUP2 ADD PUSH1 0x40 DUP2 SWAP1 MSTORE PUSH1 0x20 SWAP2 PUSH1 0xB4 JUMP JUMPDEST DUP1 CALLVALUE LT ISZERO PUSH1 0x8D JUMPI PUSH1 0x40 MLOAD PUSH3 0x461BCD PUSH1 0xE5 SHL DUP2 MSTORE PUSH1 0x20 PUSH1 0x4 DUP3 ADD MSTORE PUSH1 0x31 PUSH1 0x24 DUP3 ADD MSTORE PUSH32 0x496E73756666696369656E742045746865722073656E7420746F206D61746368 PUSH1 0x44 DUP3 ADD MSTORE PUSH17 0x1034B734BA34B0B6103130B630B731B297 PUSH1 0x79 SHL PUSH1 0x64 DUP3 ADD MSTORE PUSH1 0x84 ADD PUSH1 0x40 MLOAD DUP1 SWAP2 SUB SWAP1 REVERT JUMPDEST PUSH1 0x1 DUP1 SLOAD PUSH1 0x1 PUSH1 0x1 PUSH1 0xA0 SHL SUB NOT AND CALLER SWAP1 DUP2 OR SWAP1 SWAP2 SSTORE PUSH0 SWAP1 DUP2 MSTORE PUSH1 0x20 DUP2 SWAP1 MSTORE PUSH1 0x40 SWAP1 KECCAK256 SSTORE PUSH1 0xCA JUMP JUMPDEST PUSH0 PUSH1 0x20 DUP3 DUP5 SUB SLT ISZERO PUSH1 0xC3 JUMPI PUSH0 PUSH0 REVERT JUMPDEST POP MLOAD SWAP2 SWAP1 POP JUMP JUMPDEST PUSH2 0x288 DUP1 PUSH2 0xD7 PUSH0 CODECOPY PUSH0 RETURN INVALID PUSH1 0x80 PUSH1 0x40 MSTORE PUSH1 0x4 CALLDATASIZE LT PUSH2 0x3E JUMPI PUSH0 CALLDATALOAD PUSH1 0xE0 SHR DUP1 PUSH4 0x12065FE0 EQ PUSH2 0x42 JUMPI DUP1 PUSH4 0x2E1A7D4D EQ PUSH2 0x70 JUMPI DUP1 PUSH4 0x8DA5CB5B EQ PUSH2 0x91 JUMPI DUP1 PUSH4 0xD0E30DB0 EQ PUSH2 0xC8 JUMPI JUMPDEST PUSH0 PUSH0 REVERT JUMPDEST CALLVALUE DUP1 ISZERO PUSH2 0x4D JUMPI PUSH0 PUSH0 REVERT JUMPDEST POP CALLER PUSH0 SWAP1 DUP2 MSTORE PUSH1 0x20 DUP2 SWAP1 MSTORE PUSH1 0x40 SWAP1 KECCAK256 SLOAD PUSH1 0x40 MLOAD SWAP1 DUP2 MSTORE PUSH1 0x20 ADD JUMPDEST PUSH1 0x40 MLOAD DUP1 SWAP2 SUB SWAP1 RETURN JUMPDEST CALLVALUE DUP1 ISZERO PUSH2 0x7B JUMPI PUSH0 PUSH0 REVERT JUMPDEST POP PUSH2 0x8F PUSH2 0x8A CALLDATASIZE PUSH1 0x4 PUSH2 0x1FB JUMP JUMPDEST PUSH2 0xD0 JUMP JUMPDEST STOP JUMPDEST CALLVALUE DUP1 ISZERO PUSH2 0x9C JUMPI PUSH0 PUSH0 REVERT JUMPDEST POP PUSH1 0x1 SLOAD PUSH2 0xB0 SWAP1 PUSH1 0x1 PUSH1 0x1 PUSH1 0xA0 SHL SUB AND DUP2 JUMP JUMPDEST PUSH1 0x40 MLOAD PUSH1 0x1 PUSH1 0x1 PUSH1 0xA0 SHL SUB SWAP1 SWAP2 AND DUP2 MSTORE PUSH1 0x20 ADD PUSH2 0x67 JUMP JUMPDEST PUSH2 0x8F PUSH2 0x17C JUMP JUMPDEST CALLER PUSH0 SWAP1 DUP2 MSTORE PUSH1 0x20 DUP2 SWAP1 MSTORE PUSH1 0x40 SWAP1 KECCAK256 SLOAD DUP2 GT ISZERO PUSH2 0x12B JUMPI PUSH1 0x40 MLOAD PUSH3 0x461BCD PUSH1 0xE5 SHL DUP2 MSTORE PUSH1 0x20 PUSH1 0x4 DUP3 ADD MSTORE PUSH1 0x15 PUSH1 0x24 DUP3 ADD MSTORE PUSH21 0x24B739BAB33334B1B4B2B73A103130B630B731B297 PUSH1 0x59 SHL PUSH1 0x44 DUP3 ADD MSTORE PUSH1 0x64 ADD JUMPDEST PUSH1 0x40 MLOAD DUP1 SWAP2 SUB SWAP1 REVERT JUMPDEST CALLER PUSH0 SWAP1 DUP2 MSTORE PUSH1 0x20 DUP2 SWAP1 MSTORE PUSH1 0x40 DUP2 KECCAK256 DUP1 SLOAD DUP4 SWAP3 SWAP1 PUSH2 0x149 SWAP1 DUP5 SWAP1 PUSH2 0x226 JUMP JUMPDEST SWAP1 SWAP2 SSTORE POP POP PUSH1 0x40 MLOAD CALLER SWAP1 DUP3 ISZERO PUSH2 0x8FC MUL SWAP1 DUP4 SWAP1 PUSH0 DUP2 DUP2 DUP2 DUP6 DUP9 DUP9 CALL SWAP4 POP POP POP POP ISZERO DUP1 ISZERO PUSH2 0x178 JUMPI RETURNDATASIZE PUSH0 PUSH0 RETURNDATACOPY RETURNDATASIZE PUSH0 REVERT JUMPDEST POP POP JUMP JUMPDEST PUSH0 CALLVALUE GT PUSH2 0x1D6 JUMPI PUSH1 0x40 MLOAD PUSH3 0x461BCD PUSH1 0xE5 SHL DUP2 MSTORE PUSH1 0x20 PUSH1 0x4 DUP3 ADD MSTORE PUSH1 0x22 PUSH1 0x24 DUP3 ADD MSTORE PUSH32 0x4465706F736974206D7573742062652067726561746572207468616E207A6572 PUSH1 0x44 DUP3 ADD MSTORE PUSH2 0x3797 PUSH1 0xF1 SHL PUSH1 0x64 DUP3 ADD MSTORE PUSH1 0x84 ADD PUSH2 0x122 JUMP JUMPDEST CALLER PUSH0 SWAP1 DUP2 MSTORE PUSH1 0x20 DUP2 SWAP1 MSTORE PUSH1 0x40 DUP2 KECCAK256 DUP1 SLOAD CALLVALUE SWAP3 SWAP1 PUSH2 0x1F4 SWAP1 DUP5 SWAP1 PUSH2 0x23F JUMP JUMPDEST SWAP1 SWAP2 SSTORE POP POP JUMP JUMPDEST PUSH0 PUSH1 0x20 DUP3 DUP5 SUB SLT ISZERO PUSH2 0x20B JUMPI PUSH0 PUSH0 REVERT JUMPDEST POP CALLDATALOAD SWAP2 SWAP1 POP JUMP JUMPDEST PUSH4 0x4E487B71 PUSH1 0xE0 SHL PUSH0 MSTORE PUSH1 0x11 PUSH1 0x4 MSTORE PUSH1 0x24 PUSH0 REVERT JUMPDEST DUP2 DUP2 SUB DUP2 DUP2 GT ISZERO PUSH2 0x239 JUMPI PUSH2 0x239 PUSH2 0x212 JUMP JUMPDEST SWAP3 SWAP2 POP POP JUMP JUMPDEST DUP1 DUP3 ADD DUP1 DUP3 GT ISZERO PUSH2 0x239 JUMPI PUSH2 0x239 PUSH2 0x212 JUMP INVALID LOG2 PUSH5 0x6970667358 0x22 SLT KECCAK256 0xDD 0xE5 SAR 0x29 CHAINID ADD EXTCODEHASH LOG4 0xAF 0x25 SLT MSTORE8 ADDRESS 0x2F GT DUP3 PUSH21 0x751B6BE07A441FF03244DA838E0E6064736F6C6343 STOP ADDMOD SHL STOP CALLER "
				},
				"gasEstimates": {
					"creation": {
						"codeDepositCost": "129600",
						"executionCost": "infinite",
						"totalCost": "infinite"
					},
					"external": {
						"deposit()": "24556",
						"getBalance()": "2316",
						"owner()": "2358",
						"withdraw(uint256)": "infinite"
					}
				},
				"methodIdentifiers": {
					"deposit()": "d0e30db0",
					"getBalance()": "12065fe0",
					"owner()": "8da5cb5b",
					"withdraw(uint256)": "2e1a7d4d"
				}
			},
			"storageLayout": {
				"storage": [
					{
						"astId": 5,
						"contract": "contracts/simpleBanko.sol:SimpleBank",
						"label": "balances",
						"offset": 0,
						"slot": "0",
						"type": "t_mapping(t_address,t_uint256)"
					},
					{
						"astId": 7,
						"contract": "contracts/simpleBanko.sol:SimpleBank",
						"label": "owner",
						"offset": 0,
						"slot": "1",
						"type": "t_address"
					}
				],
				"types": {
					"t_address": {
						"encoding": "inplace",
						"label": "address",
						"numberOfBytes": "20"
					},
					"t_mapping(t_address,t_uint256)": {
						"encoding": "mapping",
						"key": "t_address",
						"label": "mapping(address => uint256)",
						"numberOfBytes": "32",
						"value": "t_uint256"
					},
					"t_uint256": {
						"encoding": "inplace",
						"label": "uint256",
						"numberOfBytes": "32"
					}
				}
			},
			"userdoc": {
				"kind": "user",
				"methods": {},
				"version": 1
			}
		}
	}
}